:020000040800F2
:100000006804002001010008D10F0008E90B000876
:10001000CD0F00083B080008A916000800000000EA
:100020000000000000000000000000006111000856
:10003000210A000800000000D30F00088712000802
:100040001B0100081B0100081B0100081B01000820
:100050001B0100081B0100081B0100081B01000810
:100060001B0100081B0100081B0100081B01000800
:100070001B0100081B0100081B0100081B010008F0
:100080001B0100081B0100081B0100081B010008E0
:100090001B0100081B0100081B0100081B010008D0
:1000A0001B0100081B0100081B0100081B010008C0
:1000B0001B0100081B0100081B0100081B010008B0
:1000C0001B0100081B0100081B0100081B010008A0
:1000D0001B0100081B0100081B0100081B01000890
:1000E0001B0100081B0100081B010008DFF80CD0F1
:1000F00000F030FB0048004715210008680400208C
:100100000648804706480047FEE7FEE7FEE7FEE7B1
:10011000FEE7FEE7FEE7FEE7FEE7FEE791120008D6
:10012000ED000008421C10F8011B0029FBD1801AC9
:1001300070472DE9FE4F804681EA0300C00F0C4650
:10014000009021F0004123F00045B8EB0200A941E6
:1001500005D24046214690461C460B46024623F0F7
:100160000040104347D0270DC7F30A00C3F30A51DC
:100170000290401A019040286BDAC3F3130040F458
:10018000801B0098924620B10023D2EB030A63EB58
:100190000B0B01985946C0F14002504600F0DDF9C2
:1001A00006460D4650465946019A00F0E5F910EB17
:1001B00008006141002487EA115284EAE7731A4378
:1001C00040D0009A62B3019A012A4FEA075215DC27
:1001D000001B61EB02014FF0004202EA0752CDE939
:1001E0000042001C41F5801132462B4600F01CFAFB
:1001F00003B0BDE8F08F40462146F9E7001B61EBF4
:100200000201001C41F5801300185B412018A2F583
:10021000001747EB030140EAD570B6196D4111E0B4
:100220006D084FEA360645EAC0754FEA0752001BD3
:1002300061EB0201001C41F5801149084FEA3000D2
:100240000019514132462B4603B0BDE8F04F00F093
:10025000DCB90098012240000023D0EB020263EBDE
:10026000E073009821464FEAE074B8EB000061EBC0
:100270000401E9E783F000435BE781F0004158E7C0
:100280002DE9FE4F81EA030404F0004421F000410F
:1002900000944FF0000B23F0004350EA01045ED0BD
:1002A00052EA03045BD0C3F30A54C1F30A552C4449
:1002B000A4F2F3340194A0FB0254C1F3130141F4FE
:1002C0008011C3F3130343F4801301FB024400FBCA
:1002D000034E840A970A44EA815447EA8357A4FBF1
:1002E000076802958D0A05FB07854FEA932C04FBEE
:1002F0000C542705029D4FEA065847EA1637B5EB1E
:1003000008056EEB070C870E920E47EA811742EA4A
:100310008312A7FB0201B6EB0B0164EB00042B0D6B
:1003200043EA0C335E1844EB1C50DA465146E7FBB7
:100330000201C5F313044FEA0B3343EA14534FEAA7
:100340000432019C43EA0603A4F10C040294009CCD
:10035000CDE900B400F068F903B0BDE8F08F0020EB
:100360000146F9E72DE9F04D81EA030404F0004B62
:1003700021F0004514464FF0000A23F0004150EAF6
:10038000050220D054EA01021DD0C5F30A570246E7
:10039000C5F31303C1F31300C1F30A5640F48015EB
:1003A00043F48013A7EB0608101BD64608F2FD386D
:1003B00073EB050002D308F1010801E092185B41DC
:1003C000B8F1000F03DA00200146BDE8F08D0020EF
:1003D0004FF48011064684460EE0171B73EB0507A9
:1003E00005D3121B63EB050306434CEA010C4908D5
:1003F0004FEA300092185B4150EA0107EDD152EA12
:10040000030012D082EA040083EA0501084305D004
:10041000101BAB4106D20122002306E000224FF060
:10042000004302E06FF0010253101AEB06004CEBA0
:10043000085110EB0A0041EB0B01BDE8F04D00F054
:10044000E4B896230022114600F0B1B80EB5C10FF2
:1004500080EAE0700844CA07002140F233438DE887
:100460000E000A460B4600F0DFF803B000BD00F0B6
:10047000004230F000400AD0C10D01F56071C0F3B8
:10048000160042EA0151C20840071143704700209C
:100490000146704701F0004330B421F0004150EABA
:1004A000010206D00A0DA2F56072C1F31301002A01
:1004B00002DC30BC00207047440F44EAC104C10094
:1004C000E01830BC00EBC25000F068B830B50B4605
:1004D000014600202022012409E021FA02F59D4274
:1004E00005D303FA02F5491B04FA02F52844151E48
:1004F000A2F10102F1DC30BD2DE9F05F05460020DC
:1005000092469B4688460646814640241BE0284684
:1005100041464746224600F02FF953465A46C01A34
:10052000914110D311461846224600F016F82D1AB4
:1005300067EB01084F4622460120002100F00DF82C
:1005400017EB00094E41201EA4F10104DFDC4846F0
:1005500031462A464346BDE8F09F202A04DB203A74
:1005600000FA02F1002070479140C2F1200320FA06
:1005700003F3194390407047202A06DBCB17203A3B
:1005800041FA02F043EAE07306E041FA02F3D04098
:10059000C2F1200291400843194670470029A8BFC4
:1005A0007047401C490008BF20F00100704710B49C
:1005B000B0FA80FC00FA0CF050EA010404BF10BC51
:1005C000704749B1CCF1200421FA04F411FA0CF17E
:1005D00018BF012121430843A3EB0C01CB1D4FEAB7
:1005E00000614FEA102042BF002010BC704700EBB2
:1005F000C35010440029A4BF10BC7047401C4900E0
:1006000008BF20F0010010BC704710B5141E73F134
:10061000000408DA401C41F1000192185B411A43C2
:1006200001D120F0010010BD2DE9F04D92469B460E
:1006300011B1B1FA81F202E0B0FA80F220329046B4
:10064000FFF78BFF04460F4640EA0A0041EA0B0120
:1006500053465A46084313D0114653EA010019D0B5
:10066000C8F14002504600F087F805460E46504655
:1006700059464246FFF771FF084305D0012004E0C8
:1006800020463946BDE8F08D0020054346EAE07675
:100690002C4337430A986305E40AA0EB08000022C4
:1006A000FD0A44EA47540A3002D500200146E9E732
:1006B000010510196941DDE9084500196941BDE8E6
:1006C000F04DA2E770B521F0004303430CD0C1F315
:1006D0000A550024D5EB040564EB0403D617AD1AC4
:1006E000B34102DB0020014670BD201841EB0251EE
:1006F00070BDC1F30A52C1F3130140F2FF3341F45C
:1007000080119A4202DA00200146704740F23343DA
:100710009A42A2F2334202DC524200F02DB8FFF7B7
:100720001CBF000030B5041E71F1000404DB4FF063
:100730000044404264EB0101141E73F1000405DB28
:100740001C464FF00043524263EB0403994208BF3A
:10075000904230BD064C074D06E0E06840F00103D2
:1007600094E8070098471034AC42F6D3FFF7C2FC78
:10077000482D0008682D0008202A04DB203A21FAC1
:1007800002F00021704721FA02F3D040C2F12002AA
:1007900091400843194670472DE9F04D00231A4651
:1007A0001B1A8A4103DB00200146BDE8F08DC1F32E
:1007B0000A52C1F3130141F480154FF0000BD10729
:1007C00002D100186D41521E0027044640F2FF116D
:1007D000384601EB620A3E468046024600204FF44E
:1007E0008011FFF7C9FFC2197141BB1846EB010028
:1007F000B4EB030C75EB000C04D3E41A65EB0005B5
:1008000017460E46241908F101006D418046342830
:10081000E3DDF91946EB0600091BA84103D24FF0AE
:10082000FF32134601E0002213461BEB070046EBA4
:100830000A51BDE8F04DFFF7E8BE00BFFEE700003B
:1008400010B50024282000F037FE10210C4800F0DD
:10085000BBF958B9502000F02FFE1021084800F0D5
:10086000B3F908B1012401E04FF0FF3400BF1021BB
:10087000034800F0A9F90028F9D1204610BD000076
:10088000000C01402DE9FC5F00F0A0F8FFF7D8FF55
:1008900000F06EF83249087000F06AF8304948708C
:1008A00000F066F82E49887000F062F82C49C87094
:1008B00000F05EF82A490871002005E02849095C2B
:1008C000514401F0FF0A401C0428F7DB244800795A
:1008D000504502D00020BDE8FC9F2149C878FFF7B1
:1008E000B0FD8346FFF7C3FD00221E4BCDE900019A
:1008F000FFF738FD06460F4619498878FFF7A1FD36
:100900008346FFF7B4FD804632463B46FFF711FCB5
:100910000446FFF7BFFD1449086011494878FFF706
:1009200090FD8346FFF7A3FD00220E4BCDE90001A9
:10093000FFF718FD06460F4609490878FFF781FDC5
:100940008346FFF794FD804632463B46FFF7F1FBB6
:100950000446FFF79FFD054908600120BBE7000042
:100960003800002000002440400000204400002007
:1009700070B5002423E000BF1021134800F024F9D3
:100980000028F9D0282000F097FD10210E4800F033
:100990001BF928B9C4F1070101208840854305E00F
:1009A000C4F10701012088402843C5B200BF1021CF
:1009B000054800F009F90028F9D1601CC4B2082CE0
:1009C000D9DB284670BD0000000C014010B50121A4
:1009D000082000F01FFB0121084600F01BFB01214D
:1009E0000D4800F0A9F810210C4800F03CFC002252
:1009F00010210A4800F0F3F8122000F079FC0122DF
:100A00001021064800F0EBF8142000F055FD1021ED
:100A1000024800F01BFC10BD00013000000C01403A
:100A200070472DE9F04102460025002600200023F2
:100A30000024002791F803C00CF00F0591F803C0C3
:100A40000CF0100CBCF1000F03D091F802C04CEA7E
:100A5000050591F800C0BCF1000F31D014680020EA
:100A60002BE04FF0010C0CFA00F3B1F800C00CEAD7
:100A700003069E4220D183004FF00F0C0CFA03F7BF
:100A8000BC4305FA03FC4CEA040491F803C0BCF132
:100A9000280F06D14FF0010C0CFA00FCC2F814C06C
:100AA0000AE091F803C0BCF1480F05D14FF0010CEA
:100AB0000CFA00FCC2F810C0401C0828D1D3146006
:100AC000B1F800C0BCF1FF0F34DD546800202EE007
:100AD00000F1080C4FF0010808FA0CF3B1F800C05F
:100AE0000CEA03069E4221D183004FF00F0C0CFA52
:100AF00003F7BC4305FA03FC4CEA040491F803C075
:100B0000BCF1280F05D100F1080C08FA0CF8C2F866
:100B1000148091F803C0BCF1480F07D100F1080C14
:100B20004FF0010808FA0CF8C2F81080401C0828A1
:100B3000CED35460BDE8F081F0B50A46002300240E
:100B40000021002500F00046B6F1004F02D11D4EF5
:100B5000F16901E01B4E7168C0F3034583B200F4F4
:100B60004016B6F5401F08D121F07061154E766829
:100B700026F07066134F7E6012E000F48016B6F522
:100B8000801F06D1032606FA05F4A14341F07061E7
:100B900006E0460D360103FA06F6B14341F07061F6
:100BA00022B1460D360103FA06F6314300F0004645
:100BB000B6F1004F02D1034EF16101E0014E7160C8
:100BC000F0BD0000000001400246002093680B4089
:100BD0000BB1012000E000207047016170470AB1AD
:100BE000016100E04161704700BFFEE721B102886A
:100BF00042F48062028004E002884FF6FF331A401C
:100C00000280704770B502460024002500230020B2
:100C1000958A138B1B0445EA030626F07F4404EAF9
:100C200001068E4201D1012000E0002070BD21B1FB
:100C3000028842F00102028004E002884FF6FE734F
:100C40001A400280704721B1028842F4807202800B
:100C500004E002884FF6FF631A400280704721B11A
:100C6000028842F40072028004E002884FF6FF53CB
:100C70001A40028070470CB5024600200023019301
:100C8000009300920B0F019321F07F41019B1BB158
:100C9000009B1433009303E0090C009B183300936E
:100CA000009B1B680B400BB1012000E000200CBD35
:100CB0002DE9F04385B004460D460026B1460427D1
:100CC000DFF8CC80A6884FF6C0700640684600F07A
:100CD000B1F9DDF808802F48B8FBF0F01FFA80F971
:100CE00046EA0906A68020884FF6FE71084020805B
:100CF00000262949286888420CD828684000B8FB9B
:100D0000F0F087B2042F00DA04273E4309F1010016
:100D1000208427E0E8884BF6FF71884206D12868D6
:100D200000EB4000B8FBF0F087B209E0286800EB68
:100D3000C00101EB0010B8FBF0F087B247F4804728
:100D4000C7F30B0008B947F0010747F4004006431A
:100D50004FF4967009FB00F04FF47A7190FBF1F0BC
:100D6000401C2084A683208840F001002080268833
:100D70004FF6F5300640A888698908430643268067
:100D8000A88929890843208105B0BDE8F0830000C7
:100D900000127A0040420F00A08601002DE9F047C2
:100DA0008046894615461E46089C002714B9012036
:100DB000BDE8F08700BF4FF400314046FFF75BFF0E
:100DC0000028F8D101214046FFF710FF01214046DD
:100DD000FFF739FF00BF2C494046FFF713FF0028FB
:100DE000F9D000224946404600F056F800BF274996
:100DF0004046FFF707FF0028F9D02946404600F09B
:100E000054F800BF2149891C4046FFF7FBFE00282B
:100E1000F8D001214046FFF716FF00BF1A494046AF
:100E2000FFF7F0FE0028F9D001224946404600F0C5
:100E300033F800BF1449491C4046FFF7E3FE002881
:100E4000F8D019E0012C07D100214046FFF7CEFE73
:100E500001214046FFF703FF00BF0B493F314046E9
:100E6000FFF7D0FE0028F8D0404600F011F8F0550A
:100E7000781CC7B2601E84B2002CE3D10121404629
:100E8000FFF7B4FE002093E7010003008200070093
:100E90000146088AC0B2704712B141F0010102E078
:100EA0004FF6FE73194001827047018270470000BF
:100EB00000B585B00121082000F0ACF80121082020
:100EC00000F0A8F80121480500F084F80121480548
:100ED00000F090F800214FF4001000F08BF81C2077
:100EE0008DF813004020ADF8100003208DF812009B
:100EF00004A91348FFF795FD8020ADF8100004A960
:100F00000F48FFF78EFD0020ADF804004BF6FF7090
:100F1000ADF806000020ADF808004FF48060ADF891
:100F20000A000001ADF80C0006480090694606482A
:100F3000FFF7BEFE01210448FFF779FE05B000BDB2
:100F4000000C0140A0860100005400402DE9FE4F36
:100F5000002002900120194B032294210090184890
:100F6000FFF71CFF4FF4487000F0C2F913490978ED
:100F700001F00F00FFF76AFA06460F460F4909789D
:100F80000809FFF763FA02460B46CDE9000100208D
:100F90004FF0804101F078F9804632463B46FFF73A
:100FA0006FF90446074A084BFFF76AF98246FFF7D4
:100FB00071FA02900298BDE8FE8F00003000002018
:100FC000005400400AD7A3703D0AE73F00BFFEE788
:100FD0007047704729B1064AD2690243044BDA616F
:100FE00004E0034AD2698243014BDA617047000092
:100FF0000010024029B1064A12690243044B1A61EB
:1010000004E0034A12698243014B1A6170470000F1
:101010000010024029B1064A92690243044B9A61CA
:1010200004E0034A92698243014B9A6170470000D1
:101030000010024030B500210022002400232D4D75
:101040006D6805F00C0121B1042905D0082923D1D0
:1010500005E0294D056022E0274D05601FE0254D84
:101060006D6805F47012234D6D6805F48034022517
:1010700005EB92421CB9214D554305600BE01D4D17
:101080006D6805F400351DB11C4D5543056002E047
:10109000194D5543056002E0174D056000BF00BFC4
:1010A000144D6D6805F0F0010909154D6B5C05687C
:1010B000DD4045600F4D6D6805F4E061090A104D93
:1010C0006B5C4568DD4085600A4D6D6805F46051D4
:1010D000C90A0B4D6B5C4568DD40C560054D6D6808
:1010E00005F44041890B074D6B5CC568B5FBF3F512
:1010F000056130BD0010024000127A0000093D0079
:101100001C0000202C00002070B504460D4600BFD6
:101110008021204600F04AFA0028F9D029462046CE
:1011200000F0BEFA70BD000070B505460C46002602
:101130000FE04FF480710948FFF74FFD14F8011BD1
:101140002846FFF7E1FF761C4FF480710348FFF754
:1011500044FD20780028ECD170BD0000000801405B
:10116000704710B500F002F810BD00000CB500206B
:10117000019000903348006840F4803031490860A5
:1011800000BF3048006800F4003000900198401C17
:101190000190009818B90198B0F5A06FF1D12948D5
:1011A000006800F4003010B10120009001E0002040
:1011B00000900098012843D12348006840F01000B7
:1011C000214908600846006820F0030008600846CE
:1011D000006840F0020008601A48406819494860F9
:1011E0000846406848600846406840F480604860AF
:1011F0000846406820F47C1048600846406840F487
:10120000E81048600846006840F08070086000BF41
:101210000C48006800F000700028F9D009484068C8
:1012200020F00300074948600846406840F002008B
:10123000486000BF0348406800F00C000828F9D15E
:101240000CBD0000001002400020024038B50546E9
:101250000C4648208DF80300ADF80040694628464A
:10126000FFF7DFFB38BD38B505460C4610208DF87A
:101270000300ADF8004002208DF8020069462846C0
:10128000FFF7CFFB38BD10B500F026F910BD000008
:1012900010B51348006840F0010011490860084685
:1012A0004068104908400E494860084600680E49E9
:1012B00008400B4908600846006820F48020086058
:1012C0000846406820F4FE0048604FF41F00886024
:1012D000FFF747FF4FF000600449086010BD0000B1
:1012E000001002400000FFF8FFFFF6FE08ED00E0EE
:1012F0000349086000BF024909680029FBD1704713
:101300003400002030B51E4800684FF47A72B0FBFC
:10131000F2F1B1F1807F01D301201DE021F07F4087
:10132000401E4FF0E022506150170F22002807DACC
:1013300013071D0E134B00F00F04241F1D5503E06F
:1013400013071C0E104B1C5400BF00204FF0E0226E
:10135000906107201061002080B100BF09480C385F
:10136000006800F4E06009490843001D05490C3994
:101370000860BFF34F8F00BF00BFFEE730BD000025
:101380000000002018ED00E000E400E00000FA0595
:101390000EB501210420FFF71DFE4FF6FF70ADF8DA
:1013A00004004720ADF800000020ADF802006946B7
:1013B000084800F02FF80121064800F00DF801223E
:1013C0001146044800F01AF80121024800F007F81D
:1013D0000EBD000000080040CA430282704721B1E0
:1013E000028842F00102028004E002884FF6FE7398
:1013F0001A40028070470146888C70471AB1838971
:101400000B43838102E083898B438381704781840E
:1014100070470000002202881D4B98420ED01D4BE1
:1014200098420BD0B0F1804F08D01B4B984205D0AA
:101430001A4B984202D01A4B984204D14FF68F7340
:101440001A404B881A43174B984207D0164B9842C4
:1014500004D04FF6FF431A40CB881A4302808B8892
:1014600083850B8803850A4B98420BD0094B984221
:1014700008D00E4B984205D00D4B984202D00D4B30
:10148000984201D10B7A03860123838270470000C2
:10149000002C0140003401400004004000080040DE
:1014A000000C0040001000400014004000400140CB
:1014B000004401400048014010B5044600210548A1
:1014C000FFF7A5FF00BF0348FFF795FFA042FAD33F
:1014D00010BD0000000800400448006820B1034827
:1014E0000068401E01490860704700003400002079
:1014F00021B1828942F40052828104E082894DF652
:10150000FF731A408281704700B585B001218803BE
:10151000FFF780FD01210420FFF77CFD012104205D
:10152000FFF778FD01210846FFF774FD4FF40070C6
:10153000ADF8100018208DF8130003208DF812006C
:1015400004A91848FFF76DFA4FF48060ADF8100059
:1015500004208DF8130004A91248FFF762FA002056
:10156000ADF80400ADF80600ADF808004FF4E13026
:1015700000900C20ADF80A000020ADF80C00694680
:10158000094800F021F801210420FFF743FD4FF442
:1015900080710448FFF767FE01210348FFF7A8FFA9
:1015A00005B000BD0008014000380140024600209F
:1015B000B1F5007F00D100BF13880B400BB10120B3
:1015C00000E00020704700002DE9F04786B0054696
:1015D0000E460024A24600BFA1460027B08900B1F4
:1015E00000BF2F462C8A4CF6FF700440F08804435D
:1015F0002C82AC894EF6F3100440B0883189084340
:10160000718908430443AC81AC8A4FF6FF40044023
:10161000B0890443AC8201A8FFF70CFD1F48874244
:1016200002D1DDF810A001E0DDF80CA0A88900F4DB
:10163000004040B10AEBCA0000EB0A1031684900D3
:10164000B0FBF1F807E00AEBCA0000EB0A103168C2
:101650008900B0FBF1F86420B8FBF0F00401200928
:10166000642101FB1089A88900F4004040B13220B8
:1016700000EBC900B0FBF1F000F00700044308E004
:10168000322000EB09106421B0FBF1F000F00F00F4
:1016900004432C8106B0BDE8F0870000003801400B
:1016A000C1F308028280704700BFFEE70FB4054B0C
:1016B00010B503A9044A029800F07EF910BC5DF849
:1016C00014FB0000F1200008480000200FB4084B74
:1016D00010B504A902AA039800F06EF9044602A905
:1016E000002000F000FD204610BC5DF814FB000057
:1016F000E7200008490050EAC12018BF04204A0D25
:1017000018BF40F0010040F2FF72B2EB515F08BF1A
:1017100040F00200012808BF052070472DE9F04184
:101720004F1E00EBC7010446D1E9000115461E46D5
:1017300037F006020DD02A463346FEF7A1FD7F1E84
:1017400004EBC703D3E90023FEF7F3FC37F00602EE
:10175000F1D1022F25D0042F13D0062F18BFBDE8DA
:10176000F0812A463346FEF78BFDD4E90A23FEF7C3
:10177000E0FC2A463346FEF783FDD4E90823FEF752
:10178000D8FC2A463346FEF77BFDD4E90623FEF754
:10179000D0FC2A463346FEF773FDD4E90423FEF756
:1017A000C8FC2A463346FEF76BFDD4E90223FEF758
:1017B000C0FC2A463346FEF763FDD4E90023BDE8AA
:1017C000F041FEF7B6BC0000002213461046014966
:1017D000FEF7C8BD0000F03FFEF7ABBC0022134689
:1017E00010461146FEF7BEBD40F2013200204FF018
:1017F000E041FEF767BF0000024A00201107FEF734
:1018000061BF000001FDFFFF02E008C8121F08C110
:10181000002AFAD170477047002001E001C1121F71
:10182000002AFBD1704700000149086070470000A2
:101830004C0000202DE9FF5F82B00021DDE904307B
:10184000020DDDF840B0034318D044F61050A2F268
:10185000FF3242431514119801281FD0A5EB0B004D
:10186000401C5FEA000A4FF000064E4FDFF8389147
:10187000B046504615D5CAF1000413E01198012472
:101880004AA3012801D16FEA0B010298119AC0E91D
:101890000031C0E9024206B0BDE8F09FCBF1000084
:1018A000DFE704460021404A491842EB0450CDE9E5
:1018B000001012E0E00707D032463B46404649465A
:1018C000FEF7DEFC8046894632463B461046194606
:1018D000FEF7D6FC06460F466410002CEAD1DDE97F
:1018E0000401DDE90023BAF1000F06DAFEF7C8FCB7
:1018F00042464B46FEF7C4FC05E0FEF733FD424688
:101900004B46FEF72FFD04460E460022284BFEF7FD
:1019100009FF03D84FF0FF30014607E00022254BB6
:1019200020463146FEF705FCFEF7E3FE102409E0F1
:10193000002C0ADB0A220023FEF7DEFD039B303277
:101940001A55641E50EA0102F2D1641C039AC4F1D4
:1019500011031444119A012A03D0012208430DD126
:101960000AE0084304D000204FF0110B119072E7F9
:10197000A3EB0B056D1E0DE05B4504DD4FF000028F
:1019800005F1010504E003DA4FF00002A5F10105BD
:10199000002AECD002981199C0E90231C0E9004553
:1019A00079E70000000014400000F03F3000000024
:1019B0000000F0430000E03F2DE9FF4F95B09B464B
:1019C0008946064600250FE2252877D100242746C0
:1019D000F84A0121059400E0044316F8013F203B3A
:1019E00001FA03F01042F7D130782A2811D06FF0B5
:1019F0002F033078A0F13002092A16D8059A44F056
:101A0000020402EB820203EB42021044761C0590B2
:101A1000EFE759F8042B0592002A03DA504244F408
:101A20000054059044F00204761C30782E2816D11C
:101A300016F8010F44F004042A280DD06FF02F028D
:101A40003078A0F13003092B09D807EB870302EBAC
:101A50004303C718761CF3E759F8047B761C3078EB
:101A60006C280FD006DC4C2817D068280DD06A28C7
:101A700014D104E0742810D07A280FD10DE044F47A
:101A800000140AE044F4801401E044F44014727835
:101A9000824202D104F58014761C761C30786628C8
:101AA0000BD013DC582877D009DC002875D04528E6
:101AB000F6D04628F4D047281AD19DE118E06328D3
:101AC00035D0642879D0652812D195E1702873D07B
:101AD00008DC6728F1D069286FD06E280DD06F28F8
:101AE00006D1B5E073282CD0752875D0782874D02D
:101AF0005A46179990476D1C75E1C4F302500228AD
:101B000009D003280DD0D9F8001004280DD00D609D
:101B100009F1040967E1D9F80010EA17C1E9005298
:101B2000F6E7D9F800100D80F2E70D70F0E719F82C
:101B3000041B8DF8001000208DF80100EA460120FA
:101B400003E059F804AB4FF0FF3061074FF000019C
:101B500002D40DE008F101018846B9420FDA804550
:101B6000F8DB1AF808100029F4D108E008F10101A7
:101B700088468142FADB1AF808100029F6D1059848
:101B80005B46A0EB080721463846179A00F094FA06
:101B9000284400EB080507E04DE029E10DE01AF8C4
:101BA000010B5A4617999047B8F10108F7D25B46E6
:101BB00021463846179A13E142E00A220092C4F304
:101BC00002524FF0000A022A08D059F804CB032A27
:101BD0004FEAEC710AD00DE029E02AE009F1070193
:101BE00021F00702F2E802C1914609E00FFA8CFCED
:101BF0004FEAEC71042A03D14FFA8CFC4FEAEC71E6
:101C0000002907DA0A460021DCF1000C61EB020131
:101C10002D2202E0220504D52B228DF8042001227A
:101C200003E0E20701D02022F7E7904659E00A21BD
:101C300002E010220DE010214FF0000A00910BE0AD
:101C400010224FF0000A44F004040827009203E039
:101C500008224FF0000A0092C4F30252022A05D073
:101C600059F804CB0021032A08D009E009F1070143
:101C700021F00702F2E802C1914605E01FFA8CFC50
:101C8000042A01D10CF0FF0C4FF00008220728D5E0
:101C9000702806D0009B83F0100353EA0A0305D096
:101CA0000EE040228DF80420012208E05CEA0102E7
:101CB00006D030228DF804208DF8050002229046CF
:101CC000009B83F0080353EA0A030AD15CEA01028D
:101CD00001D1620705D530228DF804204FF00108AC
:101CE0007F1E582804D034A003900EA802900DE067
:101CF00036A0F9E753466046009AFEF7FDFB84469E
:101D00000398825C0298401E029002705CEA010017
:101D1000F0D1029806A9081A00F1200A600702D53E
:101D200024F4803400E00127574502DDA7EB0A00C8
:101D300000E0002000EB0A01009005984144401AA1
:101D40000590E00306D45B462146179A059800F0FB
:101D5000B3F90544002706E001A85A46C05D17996B
:101D600090476D1C7F1C4745F6DBE0030CD55B46B6
:101D70002146179A059800F09FF9054404E03020A9
:101D80005A46179990476D1C0099481E00900029EB
:101D9000F5DC08E0029802995A460078491C029145
:101DA000179990476D1CBAF10001AAF1010AF1DC04
:101DB00065E100000928010030313233343536370F
:101DC0003839616263646566000000003031323387
:101DD0003435363738394142434445460000000027
:101DE00000F058F90544761C307800287FF4ECADFB
:101DF00019B02846BDE8F08F620700D4062709F124
:101E0000070222F0070CFCE80223E14603F0004839
:101E10005FEA080C02D00FF2702C0DE05FEA045C60
:101E200002D50FF2682C07E05FEAC47C02D00FF203
:101E3000602C01E0AFF2700C4FF0FF3823F000434C
:101E4000CDF850C065280CD006DC452809D04628BE
:101E50001DD047283DD13DE0662818D067287ED1A7
:101E600038E00021112F01DB112000E0781CCDE9C2
:101E7000000106A90EA8FFF7DDFCDDE90F010E9AAF
:101E800003910021009207F1010A04914DE04FF007
:101E900000400097CDE9011006A90EA8FFF7CAFC83
:101EA000DDE90F0203920E9B11990022DDF80CA0D0
:101EB0000093049211B9791C00EB010AB7EB0A00F8
:101EC00004D4C0F1FF3007F1010A0490AAEB070027
:101ED000019044E0012F00DA01270021112F01DDDC
:101EE000112000E03846CDE9000106A90EA8FFF751
:101EF000A1FCDDE90F010E9A0391002104910092EB
:101F0000BA4621070CD40399514500DA8A46BAF142
:101F1000010F05DD009AAAF10101515C302908D0BA
:101F2000B84202DA10F1040F06DA0121CDE90110FE
:101F300015E0AAF10101E9E7002805DC0499014454
:101F40000491AAEB000102E0411C514500DD8A46E4
:101F50000499401A401C01904FF000400290200765
:101F600004D40198504501DBCDF8048000208DF8A1
:101F70004F0002980DF14F07B0F1004F25D02B20F4
:101F80000E9002984FF0020800280CDA40420290AE
:101F90002D200E9007E00A210298FEF797FA3031C3
:101FA000029007F8011DB8F10001A8F10108F2DC68
:101FB00002980028EFD1791E0E980870307800F052
:101FC000200040F0450007F8020D12A8C01B00F1E8
:101FD00007081498007800B1012000EB0A0101986D
:101FE00001EBE07105984144401A401E0590E00362
:101FF00006D45B462146179A059800F05DF8054423
:102000001498007818B15A46179990476D1CE00350
:1020100024D55B462146179A059800F04DF80544F3
:102020001CE00498002807DBDDE90301884203DD9A
:102030000098405C179901E0179930205A46904764
:10204000049805F10105401C04900198401E019080
:1020500004D12E205A46179990476D1CBAF1000101
:10206000AAF1010ADDDC05E017F8010B5A461799C1
:1020700090476D1CB8F10001A8F10108F4DC5B4643
:102080002146179A0598ABE62D0000002B000000B2
:10209000200000002DE9F041044600251E461746A9
:1020A000880404D405E039462020B0476D1C641E26
:1020B000F9D52846BDE8F0812DE9F0410446002518
:1020C0001E469046C80301D5302700E0202788042B
:1020D00004D505E041463846B0476D1C641EF9D56D
:1020E0002846BDE8F0810A68531C0B6010707047E9
:1020F00070B504460D46E1B20548FFF7D1FA00BFBE
:1021000040210348FFF752FA0028F9D0204670BD5D
:10211000003801401FB5FFF7F5F8FEF7C9FEFFF7DD
:1021200037F9FFF7F1F96FE04FF0000AFEF70EFF05
:1021300036490860FEF7A6FB34480068FEF797F9B9
:1021400004460D4632480068FEF791F906460F46F0
:1021500030480068FEF78BF9804642460B462EA1B8
:102160003248CDE90067CDE90245FFF7AFFA00201C
:1021700005E02E49095C51441FFA81FA401C2B49A5
:10218000095C0029F5D12AA12A48FEF7CDFF27488E
:10219000C07A3423284A29A100902BA0FFF786FAA1
:1021A0004FEA1A202149C87481F814A03823224A22
:1021B00022A125A0CDF800A0FFF778FA1B48C07C2B
:1021C00039231D4A1DA100901FA0FFF76FFA174881
:1021D000007D3A23184A19A100901BA0FFF766FA68
:1021E0001248FDF79FFF04463D23134A13A10090B8
:1021F0001AA0FFF75BFA0D483E230F4A0FA100908B
:102200001CA0FFF753FA00BF8EE700001400002067
:1022100044000020400000206125302E31662C252E
:10222000302E31662C25382E3166000050000020FB
:102230000A00000000380140AC2C00085372635CB7
:102240006D61696E2E63000025733A202025733A74
:10225000202025643A2025780A00000025733A20C2
:102260002025733A202025643A200A202564200A7C
:102270000000000025733A202025733A20202564B1
:102280003A200A20257300002DE9F04D1D460C462A
:1022900098B0174621F0004123F00043002814BFF6
:1022A0004FF0010C4FF0000C0CEB440CFE4A0CEB11
:1022B00002064FEA620C66452BD33E0018BF01268A
:1022C00006EB45061644F94A964222D3F84A53EAE9
:1022D000070C02D0944205D148B918B0002011462D
:1022E000BDE8F08D002808BF4FF0000C01D04FF082
:1022F000010C0CEB440212F5001F0AD8002F14BF8A
:102300004FF0010C4FF0000C0CEB450212F5001FD2
:1023100007D918B03A462B462146BDE8F04DFFF7E5
:102320005BBA0022DFF88CA3002CB8BF534526DA35
:10233000DFF884C36345A8BF022220DADFF870C348
:102340009C451CDCDFF874C30CEB235CBCF1140F60
:1023500008DDCCF1340627FA06FC0CFA06F6BE427C
:102360000DD108E05FB9CCF1140623FA06FC0CFA93
:1023700006F69E4203D10CF00102C2F1020251EABC
:10238000000C19D1002D17DA002C18BF022A01D039
:10239000012A07D00220FFF747FA18B0BDE8F04D38
:1023A000FFF712BA0220FFF73FFAFFF70DFA18B055
:1023B00081F00041BDE8F08DB7F1000C6CD15345C0
:1023C00025D104F1804212F5801201BF00280020BF
:1023D000B74918B008BFBDE8F08DB548884207DCA2
:1023E000002DA1BF6046294618B0BDE8F08D07E07A
:1023F000281E05DA80F0004118B06046BDE8F08D77
:10240000AF497944D1E9000118B0BDE8F08DDFF89B
:10241000A0C2634525D1002D1FDA19B1514512D153
:10242000D8B909E0002840F0EC82A24A214618B051
:1024300062F31E01BDE8F08D0020214618B060F364
:102440001E01BDE8F08D08DA18B02346BDE8F04D56
:10245000024600206146FDF785BF18B02146BDE861
:10246000F08D514518DAB5F1804F0DD0A5F1005C23
:10247000BCF1FF5C10D1B4F1000C0DDB18B061466B
:10248000BDE8F04D00F0ECBB234618B00246BDE8B5
:10249000F04D1946FDF7F4BE060024F0004C3BD188
:1024A000D9B1514533D1002C06DD002DA1BF00204C
:1024B000514618B0BDE8F08D002C01DD002D1BDB6E
:1024C000002C13DA002D11DB012A4FF0000014BF9D
:1024D00078497C4918B0BDE8F08D022A18BF002C5D
:1024E0000AD0012A08D1002C06DA0AE0002CB8BF75
:1024F000002D11DA012A04D0002018B00146BDE8F1
:10250000F08D18B000204FF00041BDE8F08DA1F132
:102510004050B0F17F601AD0012000EBE47050EA27
:10252000020421D0624C521E4FF0000B104304BF36
:102530004FF0000B644C654883427CDD644A65487B
:1025400093421FDD884217DB002D25DB37E0002C8E
:1025500000DA4AB1022A0CBF01204FF0FF3018B058
:10256000BDE8F04DFDF772BF0120FFF75DF918B02F
:10257000BDE8F04DFFF732B94D4A8A4202DC002D2A
:102580000ADC1CE0814202DA002D18DA04E0484B34
:10259000994220DD002D12DD0220FFF745F9FFF7FB
:1025A00023F905460E460022534658462146FDF7BC
:1025B00067FE18B066F31E012846BDE8F08D0220C4
:1025C000FFF732F9FFF718F90A46214618B062F30F
:1025D0001E01BDE8F08D002230466146FDF74AFE3F
:1025E00080460E466FF00102FEF76CF84FF0553250
:1025F000394BFDF742FE42463346FDF741FE0022CD
:10260000364BFDF73AFE8246424633460491104669
:102610001946FDF735FE5246049BFDF731FE8A460A
:1026200000904FF0C0422E4B40463146FDF728FE49
:102630002C4A2B4B00E027E0CDE9060151460098DB
:10264000FDF71EFE82460191274A284B404631463F
:10265000FDF716FE5246019BFDF70CFE82460B4627
:1026600002460591DDE90601FDF763FDDDE906237C
:10267000002688463046FDF7FDFD5246059BFDF7D6
:10268000FCFD024600F07EB90020B1F5801F07DA9C
:10269000352230466146FEF715F806466FF03400E5
:1026A00000EB215024E00000FFFF1F00FFFF0F00A0
:1026B0000000F03F0000F07F0000404301FCFFFFFE
:1026C0003A0900000000F0FF0000F0BF0000E04108
:1026D0000000F043FFFFEF3F5555D53F0000E03FBE
:1026E0004715F73FFE822B6544DF5DF80BAE543E85
:1026F000A0F2FF300190C1F3130040F07F6141F080
:1027000040510291FE498842D8BF002004DDFD49B6
:102710008142C8BF012001DD0D9008E000200D902E
:102720000198401C01900298A0F580100290029937
:10273000F54878440B910D9900EBC100D0E90023D6
:102740000F9330460A920B99FDF794FDCDE90601EF
:10275000DDE90A2130460F9BFDF7EBFC02460B46F4
:102760000020EA49FDF7FEFD059102460B46009068
:10277000DDE90601FDF784FD1490E5488A464FF037
:10278000000878440299006812904FF0005040EA27
:1027900061010D980F9B01EB804000F5002109912C
:1027A0000A9A1298FDF766FD32460B9BFDF765FD10
:1027B00042465346FDF764FD0646029140465146A7
:1027C000099B129AFDF75CFDDDE90623FDF755FD37
:1027D0003246029BFDF74EFD059B009AFDF750FD2A
:1027E0000091149A0490534610461946FDF748FD8F
:1027F00006460246C7480B46029106217844FEF77A
:102800008DFFCDE90510029B324610461946FDF7B3
:1028100037FDDDE90532FDF733FD059106465346E8
:1028200040461946149AFDF784FC009B049AFDF774
:1028300027FD3246059BFDF77CFCCDE9051042469D
:10284000534610461946FDF71BFD0022B24B02917C
:102850000A90FDF76EFCDDE90532FDF76AFC0E46D5
:102860004246AD4B4046FDF705FD029B0A9AFDF737
:1028700001FDDDE90532FDF700FD424602910A90B7
:10288000334610465146FDF7FBFCCDE906015346A1
:10289000149A02990A98FDF7F3FC8A46029033468F
:1028A000424600990498FDF7EBFC5346029AFDF767
:1028B00040FC82460B4602460591DDE90601FDF724
:1028C00038FCDDE90623002088460646FDF7D2FCE9
:1028D0005246059BFDF7D1FC824609914FF06042BC
:1028E0008E4B30464146FDF7CBFC049006918C4A56
:1028F0008A4B50460999FDF7C3FC82460291894AEA
:10290000894B30464146FDF7BBFC5246029BFDF722
:1029100010FC864B7B440D9A03EBC203D3E90023E2
:10292000FDF707FC0E9007910198FDF78FFD0591CB
:10293000DDE9061382460E9A0498FDF7FAFB7C4AFD
:102940007A440D9B02EBC303D3E900230093029268
:10295000FDF7EFFB5246059BFDF7EBFB0026884693
:1029600052463046059BFDF785FC009B029AFDF719
:1029700081FC069B049AFDF77DFC079B0E9AFDF7F0
:102980007CFC024600200B46029038462946FDF7A3
:1029900077FC824601912B4638461946029AFDF78C
:1029A00069FC32464346FDF76BFC5246019BFDF73E
:1029B000C0FB07468A463246434629460298FDF741
:1029C0005FFC05460E463A465346FDF7B2FB594AB0
:1029D0008846914221DBA8EB020353EA000210D1A2
:1029E0002A463346FDF746FCCDE90401524A534BD3
:1029F00038465146FDF79DFBDDE90423FDF792FEC5
:102A000021D20220FEF710FFFEF7EEFE0A46214615
:102A100018B062F31E01BDE8F08D494B28F000426A
:102A20009A4210D3474A08EB020353EA00027FF4AC
:102A3000C6AD2A463346FDF71DFC3A465346FDF720
:102A400071FE7FF6BCAD0022019228F000403E49A5
:102A50003E4A01EB2051824223DA481C4FF4801198
:102A600021FA00F040443A4AC0F30A517A44394B03
:102A7000A1F2FF31CB4020EA0303C0F3130040F47E
:102A80008010C1F11401C84012680190B8F1000F24
:102A9000BCBF4042019028463146FDF7EBFB05469E
:102AA0000E462A46334638465146FDF742FB4FF064
:102AB00000084246284B40460591FDF7E1FBCDE971
:102AC0000601264A264B40460599FDF7D9FB0091A1
:102AD00002902A46334640460599FDF7CBFB3A461D
:102AE0005346FDF7CAFB1F4A1F4BFDF7C9FB009B6E
:102AF000029AFDF71EFB0746884602460B4635E064
:102B00008E9803007AB60B00820500000000F03FAB
:102B1000BA050000E80400000000084009C7EE3FC5
:102B2000FD033ADCF5015B14E02F3EBEC00300005C
:102B30008403000000009040FE822B654715973CFF
:102B400000CC904000346F3F01FCFFFF0000E03FED
:102B5000D0020000FFFF0F00432EE63F396CA80CA7
:102B6000615C20BEEF39FAFE422EE63FDDE9060148
:102B7000FDF7DFFADDE9062305460E46FDF77AFB91
:102B80003A464346FDF779FB0F462A463346009006
:102B900010461946FDF774FB824602462E488846C9
:102BA0000B4605217844FEF7B9FD52464346FDF732
:102BB00067FB2A463346FDF760FB80468A463B4664
:102BC00028463146009AFDF75BFB3B46009AFDF72D
:102BD000B0FA0691009000224FF0804340465146E3
:102BE000FDF748FB0F460C904246534628463146B7
:102BF000FDF746FB3B460C9AFDF7B4FB069B009A9B
:102C0000FDF738FB2A463346FDF734FB0022134B11
:102C1000FDF733FB054601980E4601EB0051081500
:102C2000002810DC28463146019AFDF74BFDFEF7DF
:102C300061FD042808BFFEF7DFFD28463146019AF2
:102C4000FDF740FD05460B4618B02A46584621467A
:102C5000BDE8F04DFDF714BB700100000000F03F2F
:102C60002DE9F04106460F46FDF796FD041E0D4680
:102C700018BF0120284320F00040C0F17F6000F120
:102C8000E040C00F0ED0301C18BF0120384320F0A8
:102C90000040C0F17F6000F1E040C00F04BF0120A0
:102CA000FEF7C2FD20462946BDE8F0816D61696EE0
:102CB0000000000000000000000000000000F03FE5
:102CC000000000000000F83F0000000000000000CD
:102CD0000000004003B8E23F0000000000000000D8
:102CE00006D0CF43EBFD4C3E033333333333E33F66
:102CF000FFAB6FDBB66DDB3F4D268F515555D53F92
:102D000001411DA96074D13F65DBC9934A86CD3F5F
:102D1000EF4E454A287ECA3F3E5555555555C53F4D
:102D200093BDBE166CC166BF2CDE25AF6A56113F3F
:102D3000F16BD2C541BDBBBED0A4BE726937663E41
:102D40000000000000000000682D000800000020C6
:102D50005000000008180008B82D0008500000209E
:102D6000180400001818000800A24A04000000001F
:102D7000000000000102030406070809000000002B
:102D8000000000000000000001020304010203042F
:102D90000607080902040608000000000000000001
:102DA0000000000000000000000000000000000023
:082DB00000000000000000001B
:04000005080000ED02
:00000001FF
