:020000040800F2
:100000004804002001010008D10F0008E50B00089A
:10001000CD0F00086F0700089914000800000000C9
:1000200000000000000000000000000009110008AE
:10003000B10A000800000000D30F00082F120008CA
:100040001B0100081B0100081B0100081B01000820
:100050001B0100081B0100081B0100081B01000810
:100060001B0100081B0100081B0100081B01000800
:100070001B0100081B0100081B0100081B010008F0
:100080001B0100081B0100081B0100081B010008E0
:100090001B0100081B0100081B0100081B010008D0
:1000A0001B0100081B0100081B0100081B010008C0
:1000B0001B0100081B0100081B0100081B010008B0
:1000C0001B0100081B0100081B0100081B010008A0
:1000D0001B0100081B0100081B0100081B01000890
:1000E0001B0100081B0100081B010008DFF80CD0F1
:1000F00000F0CAFA00480047DD1500084804002057
:100100000648804706480047FEE7FEE7FEE7FEE7B1
:10011000FEE7FEE7FEE7FEE7FEE7FEE7391200082E
:10012000ED0000082DE9FE4F804681EA0300C00F74
:100130000C46009021F0004123F00045B8EB02008E
:10014000A94105D24046214690461C460B46024630
:1001500023F00040104347D0270DC7F30A00C3F334
:100160000A510290401A019040286BDAC3F3130041
:1001700040F4801B0098924620B10023D2EB030A82
:1001800063EB0B0B01985946C0F14002504600F05A
:1001900096F906460D4650465946019A00F09EF9DA
:1001A00010EB08006141002487EA115284EAE773EA
:1001B0001A4340D0009A62B3019A012A4FEA0752CB
:1001C00015DC001B61EB02014FF0004202EA07520E
:1001D000CDE90042001C41F5801132462B4600F06B
:1001E000D5F903B0BDE8F08F40462146F9E7001B82
:1001F00061EB0201001C41F5801300185B412018DF
:10020000A2F5001747EB030140EAD570B6196D411E
:1002100011E06D084FEA360645EAC0754FEA07520D
:10022000001B61EB0201001C41F5801149084FEAF7
:1002300030000019514132462B4603B0BDE8F04F63
:1002400000F095B90098012240000023D0EB020293
:1002500063EBE073009821464FEAE074B8EB0000CE
:1002600061EB0401E9E783F000435BE781F00041C3
:1002700058E72DE9FE4F81EA030404F0004421F021
:10028000004100944FF0000B23F0004350EA0104BA
:100290005ED052EA03045BD0C3F30A54C1F30A559B
:1002A0002C44A4F2F3340194A0FB0254C1F31301D3
:1002B00041F48011C3F3130343F4801301FB0244A0
:1002C00000FB034E840A970A44EA815447EA8357A5
:1002D000A4FB076802958D0A05FB07854FEA932C5E
:1002E00004FB0C542705029D4FEA065847EA1637CF
:1002F000B5EB08056EEB070C870E920E47EA8117E7
:1003000042EA8312A7FB0201B6EB0B0164EB000487
:100310002B0D43EA0C335E1844EB1C50DA46514671
:10032000E7FB0201C5F313044FEA0B3343EA14530E
:100330004FEA0432019C43EA0603A4F10C04029440
:10034000009CCDE900B400F021F903B0BDE8F08FC6
:1003500000200146F9E72DE9F04D81EA030404F09D
:10036000004B21F0004514464FF0000A23F00041F5
:1003700050EA050220D054EA01021DD0C5F30A5705
:100380000246C5F31303C1F31300C1F30A5640F448
:10039000801543F48013A7EB0608101BD64608F21D
:1003A000FD3873EB050002D308F1010801E0921853
:1003B0005B41B8F1000F03DA00200146BDE8F08D83
:1003C00000204FF48011064684460EE0171B73EBA5
:1003D000050705D3121B63EB050306434CEA010C2A
:1003E00049084FEA300092185B4150EA0107EDD10D
:1003F00052EA030012D082EA040083EA05010843AE
:1004000005D0101BAB4106D20122002306E00022DA
:100410004FF0004302E06FF0010253101AEB0600A8
:100420004CEB085110EB0A0041EB0B01BDE8F04D1D
:1004300000F09DB896230022114600F06AB80EB570
:10044000C10F80EAE0700844CA07002140F233433C
:100450008DE80E000A460B4600F098F803B000BD88
:1004600000F0004230F000400AD0C10D01F560718B
:10047000C0F3160042EA0151C20840071143704719
:1004800000200146704701F0004330B421F00041E4
:1004900050EA010206D00A0DA2F56072C1F3130101
:1004A000002A02DC30BC00207047440F44EAC1043B
:1004B000C100E01830BC00EBC25000F021B8202A87
:1004C00004DB203A00FA02F1002070479140C2F1AB
:1004D000200320FA03F3194390407047202A06DBDB
:1004E000CB17203A41FA02F043EAE07306E041FA02
:1004F00002F3D040C2F120029140084319467047F0
:100500000029A8BF7047401C490008BF20F0010027
:10051000704710B4B0FA80FC00FA0CF050EA010405
:1005200004BF10BC704749B1CCF1200421FA04F497
:1005300011FA0CF118BF012121430843A3EB0C0170
:10054000CB1D4FEA00614FEA102042BF002010BCD3
:10055000704700EBC35010440029A4BF10BC704783
:10056000401C490008BF20F0010010BC704710B5C6
:10057000141E73F1000408DA401C41F100019218C6
:100580005B411A4301D120F0010010BD2DE9F04D6F
:1005900092469B4611B1B1FA81F202E0B0FA80F2C4
:1005A00020329046FFF78BFF04460F4640EA0A00D0
:1005B00041EA0B0153465A46084313D0114653EA09
:1005C000010019D0C8F14002504600F06FF805460E
:1005D0000E46504659464246FFF771FF084305D084
:1005E000012004E020463946BDE8F08D0020054397
:1005F00046EAE0762C4337430A986305E40AA0EB09
:1006000008000022FD0A44EA47540A3002D50020BF
:100610000146E9E7010510196941DDE908450019BE
:100620006941BDE8F04DA2E770B521F000430343F6
:100630000CD0C1F30A550024D5EB040564EB040388
:10064000D617AD1AB34102DB0020014670BD201859
:1006500041EB025170BD000030B5041E71F1000481
:1006600004DB4FF00044404264EB0101141E73F1BF
:10067000000405DB1C464FF00043524263EB0403C9
:10068000994208BF904230BD064C074D06E0E06835
:1006900040F0010394E8070098471034AC42F6D3C9
:1006A000FFF728FDC0200008E0200008202A04DB16
:1006B000203A21FA02F00021704721FA02F3D040DB
:1006C000C2F1200291400843194670472DE9F04DD0
:1006D00000231A461B1A8A4103DB00200146BDE8AD
:1006E000F08DC1F30A52C1F3130141F480154FF0AC
:1006F000000BD10702D100186D41521E002704469D
:1007000040F2FF11384601EB620A3E46804602463F
:1007100000204FF48011FFF7C9FFC2197141BB18C7
:1007200046EB0100B4EB030C75EB000C04D3E41AA8
:1007300065EB000517460E46241908F101006D41CE
:1007400080463428E3DDF91946EB0600091BA84171
:1007500003D24FF0FF32134601E0002213461BEB99
:10076000070046EB0A51BDE8F04DFFF700BF00BFA0
:10077000FEE7000010B50024282000F071FE4021A3
:100780000C4800F021FA58B9502000F069FE4021D1
:10079000084800F019FA08B1012401E04FF0FF34D5
:1007A00000BF4021034800F00FFA0028F9D120468D
:1007B00010BD0000000C01402DE9F84F00F08EF84C
:1007C000FFF7D8FF00F05CF82949087000F058F8EE
:1007D0002749487000F054F82549887000F050F817
:1007E0002349C87000F04CF82149C878FFF722FE71
:1007F0000090FFF735FE804600221E4BFFF7ABFD51
:1008000004460D461A498878FFF714FE8046FFF724
:1008100027FE064622462B46FFF784FC8246FFF75A
:1008200032FE1549086012494878FFF703FE009030
:10083000FFF716FE804600220E4BFFF78CFD0446A4
:100840000D460B490878FFF7F5FD8046FFF708FED7
:10085000064622462B46FFF765FC8246FFF713FE4D
:10086000064908604FF4FA7000F016FDBDE8F88FF5
:1008700038000020000024403C0000204000002000
:1008800070B5002423E000BF4021134800F09CF91C
:100890000028F9D0282000F0E3FD40210E4800F0A8
:1008A00093F928B9C4F1070101208840854305E088
:1008B000C4F10701012088402843C5B200BF402190
:1008C000054800F081F90028F9D1601CC4B2082C59
:1008D000D9DB284670BD0000000C014010B5402156
:1008E0000B4800F094FC00224021094800F075F903
:1008F000122000F0D1FC01224021054800F06DF9E2
:10090000142000F0ADFD4021014800F073FC10BD43
:10091000000C01402DE9F84F00F068F883460120F3
:1009200000F0BAFCCC2000F08DF8442000F08AF8EA
:100930004FF4487000F0B0FC00F058F883460120F6
:1009400000F0AAFCCC2000F07DF8BE2000F07AF880
:1009500000F020F88DF8000000F01CF88DF8010080
:100960009DF801409DF8000040EA04242046FFF76E
:1009700061FD8246FFF774FD07460022044BFFF736
:10098000EAFC0546FFF77FFD81464846BDE8F88F43
:100990000000304070B500252021134800F02AFCEB
:1009A00000241CE02021104800F031FC002220210E
:1009B0000D4800F012F9022000F052FD20210A48F3
:1009C00000F018FC2021084800F0FEF818B10120C2
:1009D000A0402843C5B23C2000F042FD641C082C16
:1009E000E0DB284670BD0000000C014010B500247B
:1009F0000121082000F00EFB2021114800F007FC27
:100A0000002220210E4800F0E8F84FF4F07000F0CA
:100A100027FD20210A4800F0EDFB502000F020FDCA
:100A20002021074800F0D0F808B9012401E04FF078
:100A3000FF344FF4C87000F013FDE0B210BD0000A9
:100A4000000C014070B505462021184800F0DFFB7E
:100A5000002428E00120A040284098B1202113481C
:100A600000F0D5FB00222021104800F0B6F801204C
:100A700000F0F6FC20210D4800F0BCFB3C2000F00B
:100A8000EFFC0FE02021094800F0C1FB00222021EB
:100A9000064800F0A2F83C2000F0E2FC20210348C8
:100AA00000F0A8FB641C082CD4DB70BD000C0140D6
:100AB00070472DE9F0410246002500260020002362
:100AC0000024002791F803C00CF00F0591F803C033
:100AD0000CF0100CBCF1000F03D091F802C04CEAEE
:100AE000050591F800C0BCF1000F31D0146800205A
:100AF0002BE04FF0010C0CFA00F3B1F800C00CEA47
:100B000003069E4220D183004FF00F0C0CFA03F72E
:100B1000BC4305FA03FC4CEA040491F803C0BCF1A1
:100B2000280F06D14FF0010C0CFA00FCC2F814C0DB
:100B30000AE091F803C0BCF1480F05D14FF0010C59
:100B40000CFA00FCC2F810C0401C0828D1D3146075
:100B5000B1F800C0BCF1FF0F34DD546800202EE076
:100B600000F1080C4FF0010808FA0CF3B1F800C0CE
:100B70000CEA03069E4221D183004FF00F0C0CFAC1
:100B800003F7BC4305FA03FC4CEA040491F803C0E4
:100B9000BCF1280F05D100F1080C08FA0CF8C2F8D6
:100BA000148091F803C0BCF1480F07D100F1080C84
:100BB0004FF0010808FA0CF8C2F81080401C082811
:100BC000CED35460BDE8F0810246002093680B400C
:100BD0000BB1012000E0002070470AB1016100E084
:100BE0004161704700BFFEE721B1028842F4806294
:100BF000028004E002884FF6FF331A4002807047FB
:100C000070B502460024002500230020958A138B2E
:100C10001B0445EA030626F07F4404EA01068E42DF
:100C200001D1012000E0002070BD21B1028842F016
:100C30000102028004E002884FF6FE731A4002802F
:100C4000704721B1028842F48072028004E0028879
:100C50004FF6FF631A400280704721B1028842F4C8
:100C60000072028004E002884FF6FF531A400280AF
:100C700070470CB5024600200023019300930092B8
:100C80000B0F019321F07F41019B1BB1009B14339B
:100C9000009303E0090C009B18330093009B1B6832
:100CA0000B400BB1012000E000200CBD2DE9F0430A
:100CB00085B004460D460026B1460427DFF8CC80F7
:100CC000A6884FF6C0700640684600F0B3F9DDF81C
:100CD00008802F48B8FBF0F01FFA80F946EA0906B1
:100CE000A68020884FF6FE71084020800026294902
:100CF000286888420CD828684000B8FBF0F087B21A
:100D0000042F00DA04273E4309F10100208427E084
:100D1000E8884BF6FF71884206D1286800EB400056
:100D2000B8FBF0F087B209E0286800EBC00101EBE6
:100D30000010B8FBF0F087B247F48047C7F30B0010
:100D400008B947F0010747F4004006434FF4967096
:100D500009FB00F04FF47A7190FBF1F0401C208405
:100D6000A683208840F00100208026884FF6F530C9
:100D70000640A8886989084306432680A8892989EE
:100D80000843208105B0BDE8F083000000127A001E
:100D900040420F00A08601002DE9F04780468946B9
:100DA00015461E46089C002714B90120BDE8F087AF
:100DB00000BF4FF400314046FFF75BFF0028F8D139
:100DC00001214046FFF710FF01214046FFF739FFA0
:100DD00000BF2C494046FFF713FF0028F9D000223E
:100DE0004946404600F056F800BF27494046FFF705
:100DF00007FF0028F9D02946404600F054F800BF0C
:100E00002149891C4046FFF7FBFE0028F8D001214C
:100E10004046FFF716FF00BF1A494046FFF7F0FEB5
:100E20000028F9D001224946404600F033F800BFBF
:100E30001449491C4046FFF7E3FE0028F8D019E0AA
:100E4000012C07D100214046FFF7CEFE012140468C
:100E5000FFF703FF00BF0B493F314046FFF7D0FECD
:100E60000028F8D0404600F011F8F055781CC7B2C1
:100E7000601E84B2002CE3D101214046FFF7B4FE8E
:100E8000002093E701000300820007000146088A62
:100E9000C0B2704712B141F0010102E04FF6FE739B
:100EA00019400182704701827047000000B585B08B
:100EB0000121082000F0AEF80121082000F0AAF876
:100EC0000121880500F086F80121880500F092F8DC
:100ED00000214FF4800000F08DF81C208DF81300E5
:100EE0004FF48060ADF8100003208DF8120004A9C3
:100EF0001348FFF7DEFD4FF40060ADF8100004A9C1
:100F00000F48FFF7D6FD0020ADF804004BF6FF7048
:100F1000ADF806000020ADF808004FF48060ADF891
:100F20000A000001ADF80C0006480090694606482A
:100F3000FFF7BCFE01210448FFF777FE05B000BDB6
:100F4000000C0140A0860100005800402DE9FE4F32
:100F5000002002900120194B032294210090184890
:100F6000FFF71AFF4FF4487000F096F9134909781B
:100F700001F00F00FFF763FA06460F460F490978A4
:100F80000809FFF75CFA02460B46CDE90001002094
:100F90004FF0804100F038FB804632463B46FFF779
:100FA00068F90446074A084BFFF763F98246FFF7E2
:100FB0006AFA02900298BDE8FE8F0000300000201F
:100FC000005800400AD7A3703D0AE73F00BFFEE784
:100FD0007047704729B1064AD2690243044BDA616F
:100FE00004E0034AD2698243014BDA617047000092
:100FF0000010024029B1064A12690243044B1A61EB
:1010000004E0034A12698243014B1A6170470000F1
:101010000010024029B1064A92690243044B9A61CA
:1010200004E0034A92698243014B9A6170470000D1
:101030000010024030B500210022002400232D4D75
:101040006D6805F00C0121B1042905D0082923D1D0
:1010500005E0294D056022E0274D05601FE0254D84
:101060006D6805F47012234D6D6805F48034022517
:1010700005EB92421CB9214D554305600BE01D4D17
:101080006D6805F400351DB11C4D5543056002E047
:10109000194D5543056002E0174D056000BF00BFC4
:1010A000144D6D6805F0F0010909154D6B5C05687C
:1010B000DD4045600F4D6D6805F4E061090A104D93
:1010C0006B5C4568DD4085600A4D6D6805F46051D4
:1010D000C90A0B4D6B5C4568DD40C560054D6D6808
:1010E00005F44041890B074D6B5CC568B5FBF3F512
:1010F000056130BD0010024000127A0000093D0079
:101100001C0000202C000020704710B500F002F8F1
:1011100010BD00000CB5002001900090334800681D
:1011200040F480303149086000BF3048006800F466
:10113000003000900198401C0190009818B9019867
:10114000B0F5A06FF1D12948006800F4003010B16B
:101150000120009001E0002000900098012843D178
:101160002348006840F010002149086008460068E4
:1011700020F0030008600846006840F002000860A4
:101180001A4840681949486008464068486008465F
:10119000406840F4806048600846406820F47C1055
:1011A00048600846406840F4E81048600846006817
:1011B00040F08070086000BF0C48006800F00070CC
:1011C0000028F9D00948406820F00300074948602A
:1011D0000846406840F00200486000BF034840688D
:1011E00000F00C000828F9D10CBD000000100240EE
:1011F0000020024038B505460C4648208DF8030013
:10120000ADF8004069462846FFF753FC38BD38B5B5
:1012100005460C4610208DF80300ADF80040022072
:101220008DF8020069462846FFF743FC38BD10B52B
:1012300000F026F910BD000010B51348006840F01A
:1012400001001149086008464068104908400E49ED
:101250004860084600680E4908400B490860084687
:10126000006820F4802008600846406820F4FE00F2
:1012700048604FF41F008860FFF747FF4FF00060A1
:101280000449086010BD0000001002400000FFF893
:10129000FFFFF6FE08ED00E00349086000BF0249C9
:1012A00009680029FBD170473400002030B51E4882
:1012B00000684FF47A72B0FBF2F1B1F1807F01D394
:1012C00001201DE021F07F40401E4FF0E0225061E0
:1012D00050170F22002807DA13071D0E134B00F0DA
:1012E0000F04241F1D5503E013071C0E104B1C5444
:1012F00000BF00204FF0E022906107201061002025
:1013000080B100BF09480C38006800F4E06009496A
:101310000843001D05490C390860BFF34F8F00BF1B
:1013200000BFFEE730BD00000000002018ED00E027
:1013300000E400E00000FA050EB501210420FFF7EB
:1013400049FE4FF6FF70ADF804004720ADF80000ED
:101350000020ADF802006946084800F02FF801218E
:10136000064800F00DF801221146044800F01AF872
:101370000121024800F007F80EBD000000080040FF
:10138000CA430282704721B1028842F00102028002
:1013900004E002884FF6FE731A400280704701464F
:1013A000888C70471AB183890B43838102E083895B
:1013B0008B4383817047818470470000002202883C
:1013C0001D4B98420ED01D4B98420BD0B0F1804F70
:1013D00008D01B4B984205D01A4B984202D01A4BAA
:1013E000984204D14FF68F731A404B881A43174B1B
:1013F000984207D0164B984204D04FF6FF431A404C
:10140000CB881A4302808B8883850B8803850A4B1F
:1014100098420BD0094B984208D00E4B984205D009
:101420000D4B984202D00D4B984201D10B7A0386A6
:101430000123838270470000002C014000340140EA
:101440000004004000080040000C00400010004074
:1014500000140040004001400044014000480140A9
:1014600010B5044600210548FFF7A5FF00BF03485B
:10147000FFF795FFA042FAD310BD0000000800401E
:101480000448006820B103480068401E0149086014
:10149000704700003400002000BFFEE7490050EA1A
:1014A000C12018BF04204A0D18BF40F0010040F2CF
:1014B000FF72B2EB515F08BF40F00200012808BF85
:1014C000052070472DE9F0414F1E00EBC70104468F
:1014D000D1E9000115461E4637F006020DD02A4616
:1014E0003346FEF7C6FE7F1E04EBC703D3E9002395
:1014F000FEF718FE37F00602F1D1022F25D0042F97
:1015000013D0062F18BFBDE8F0812A463346FEF7F8
:10151000B0FED4E90A23FEF705FE2A463346FEF75D
:10152000A8FED4E90823FEF7FDFD2A463346FEF760
:10153000A0FED4E90623FEF7F5FD2A463346FEF762
:1015400098FED4E90423FEF7EDFD2A463346FEF764
:1015500090FED4E90223FEF7E5FD2A463346FEF766
:1015600088FED4E90023BDE8F041FEF7DBBD0000B2
:101570000022134610460149FEF7EDBE0000F03F81
:10158000FEF7D0BD0022134610461146FEF7E3BE1B
:1015900040F2013200204FF0E041FFF745B8000073
:1015A000024A00201107FFF73FB8000001FDFFFFCE
:1015B00002E008C8121F08C1002AFAD1704770471C
:1015C000002001E001C1121F002AFBD1704700007A
:1015D000014908607047000044000020FFF766FEE4
:1015E000FFF764FCFFF7A8FE09E0FFF793F9044951
:1015F0000860FFF7ABFC03490860FFF7DDF8F4E78C
:1016000018000020140000202DE9F04D1D460C4666
:1016100098B0174621F0004123F00043002814BF82
:101620004FF0010C4FF0000C0CEB440CFE4A0CEB9D
:1016300002064FEA620C66452BD33E0018BF012616
:1016400006EB45061644F94A964222D3F84A53EA75
:10165000070C02D0944205D148B918B000201146B9
:10166000BDE8F08D002808BF4FF0000C01D04FF00E
:10167000010C0CEB440212F5001F0AD8002F14BF16
:101680004FF0010C4FF0000C0CEB450212F5001F5F
:1016900007D918B03A462B462146BDE8F04DFFF772
:1016A0006FBF0022DFF88CA3002CB8BF534526DAA9
:1016B000DFF884C36345A8BF022220DADFF870C3D5
:1016C0009C451CDCDFF874C30CEB235CBCF1140FED
:1016D00008DDCCF1340627FA06FC0CFA06F6BE4209
:1016E0000DD108E05FB9CCF1140623FA06FC0CFA20
:1016F00006F69E4203D10CF00102C2F1020251EA49
:10170000000C19D1002D17DA002C18BF022A01D0C5
:10171000012A07D00220FFF75BFF18B0BDE8F04DAB
:10172000FFF726BF0220FFF753FFFFF721FF18B096
:1017300081F00041BDE8F08DB7F1000C6CD153454C
:1017400025D104F1804212F5801201BF002800204B
:10175000B74918B008BFBDE8F08DB548884207DC2E
:10176000002DA1BF6046294618B0BDE8F08D07E006
:10177000281E05DA80F0004118B06046BDE8F08D03
:10178000AF497944D1E9000118B0BDE8F08DDFF828
:10179000A0C2634525D1002D1FDA19B1514512D1E0
:1017A000D8B909E0002840F0EC82A24A214618B0DE
:1017B00062F31E01BDE8F08D0020214618B060F3F1
:1017C0001E01BDE8F08D08DA18B02346BDE8F04DE3
:1017D000024600206146FEF7BEBD18B02146BDE8B6
:1017E000F08D514518DAB5F1804F0DD0A5F1005CB0
:1017F000BCF1FF5C10D1B4F1000C0DDB18B06146F8
:10180000BDE8F04D00F0ECBB234618B00246BDE841
:10181000F04D1946FEF72DBD060024F0004C3BD1DB
:10182000D9B1514533D1002C06DD002DA1BF0020D8
:10183000514618B0BDE8F08D002C01DD002D1BDBFA
:10184000002C13DA002D11DB012A4FF0000014BF29
:1018500078497C4918B0BDE8F08D022A18BF002CE9
:101860000AD0012A08D1002C06DA0AE0002CB8BF01
:10187000002D11DA012A04D0002018B00146BDE87D
:10188000F08D18B000204FF00041BDE8F08DA1F1BF
:101890004050B0F17F601AD0012000EBE47050EAB4
:1018A000020421D0624C521E4FF0000B104304BFC3
:1018B0004FF0000B644C654883427CDD644A654808
:1018C00093421FDD884217DB002D25DB37E0002C1B
:1018D00000DA4AB1022A0CBF01204FF0FF3018B0E5
:1018E000BDE8F04DFEF7ABBD0120FFF771FE18B06B
:1018F000BDE8F04DFFF746BE4D4A8A4202DC002D9E
:101900000ADC1CE0814202DA002D18DA04E0484BC0
:10191000994220DD002D12DD0220FFF759FEFFF76E
:1019200037FE05460E460022534658462146FEF72E
:10193000A0FC18B066F31E012846BDE8F08D022019
:10194000FFF746FEFFF72CFE0A46214618B062F369
:101950001E01BDE8F08D002230466146FEF783FC93
:1019600080460E466FF00102FEF75EFE4FF05532E4
:10197000394BFEF77BFC42463346FEF77AFC0022E9
:10198000364BFEF773FC82464246334604911046BE
:101990001946FEF76EFC5246049BFEF76AFC8A4627
:1019A00000904FF0C0422E4B40463146FEF761FC9E
:1019B0002C4A2B4B00E027E0CDE906015146009868
:1019C000FEF757FC82460191274A284B4046314694
:1019D000FEF74FFC5246019BFEF745FC82460B4644
:1019E00002460591DDE90601FEF79CFBDDE90623D1
:1019F000002688463046FEF736FC5246059BFEF729
:101A000035FC024600F07EB90020B1F5801F07DAF0
:101A1000352230466146FEF707FE06466FF0340079
:101A200000EB215024E00000FFFF1F00FFFF0F002C
:101A30000000F03F0000F07F0000404301FCFFFF8A
:101A4000320900000000F0FF0000F0BF0000E0419C
:101A50000000F043FFFFEF3F5555D53F0000E03F4A
:101A60004715F73FFE822B6544DF5DF80BAE543E11
:101A7000A0F2FF300190C1F3130040F07F6141F00C
:101A800040510291FE498842D8BF002004DDFD4943
:101A90008142C8BF012001DD0D9008E000200D90BB
:101AA0000198401C01900298A0F5801002900299C4
:101AB000F54878440B910D9900EBC100D0E9002363
:101AC0000F9330460A920B99FEF7CDFBCDE9060144
:101AD000DDE90A2130460F9BFEF724FB02460B4648
:101AE0000020EA49FEF737FC059102460B460090BC
:101AF000DDE90601FEF7BDFB1490E5488A464FF08C
:101B0000000878440299006812904FF0005040EAB3
:101B100061010D980F9B01EB804000F500210991B8
:101B20000A9A1298FEF79FFB32460B9BFEF79EFB2C
:101B300042465346FEF79DFB0646029140465146FB
:101B4000099B129AFEF795FBDDE90623FEF78EFB53
:101B50003246029BFEF787FB059B009AFEF789FB46
:101B60000091149A0490534610461946FEF781FBE3
:101B700006460246C7480B46029106217844FFF705
:101B8000A1FCCDE90510029B324610461946FEF72E
:101B900070FBDDE90532FEF76CFB05910646534606
:101BA00040461946149AFEF7BDFA009B049AFEF7C8
:101BB00060FB3246059BFEF7B5FACDE905104246BB
:101BC000534610461946FEF754FB0022B24B0291D1
:101BD0000A90FEF7A7FADDE90532FEF7A3FA0E46F2
:101BE0004246AD4B4046FEF73EFB029B0A9AFEF78B
:101BF0003AFBDDE90532FEF739FB424602910A90D5
:101C0000334610465146FEF734FBCDE906015346F4
:101C1000149A02990A98FEF72CFB8A4602903346E2
:101C2000424600990498FEF724FB5346029AFEF7B9
:101C300079FA82460B4602460591DDE90601FEF778
:101C400071FADDE90623002088460646FEF70BFB05
:101C50005246059BFEF70AFB824609914FF060420F
:101C60008E4B30464146FEF704FB049006918C4AA9
:101C70008A4B50460999FEF7FCFA82460291894A3E
:101C8000894B30464146FEF7F4FA5246029BFEF776
:101C900049FA864B7B440D9A03EBC203D3E9002338
:101CA000FEF740FA0E9007910198FEF7C8FB0591E8
:101CB000DDE9061382460E9A0498FEF733FA7C4A51
:101CC0007A440D9B02EBC303D3E9002300930292F5
:101CD000FEF728FA5246059BFEF724FA00268846AE
:101CE00052463046059BFEF7BEFA009B029AFEF76D
:101CF000BAFA069B049AFEF7B6FA079B0E9AFEF70D
:101D0000B5FA024600200B46029038462946FEF7F7
:101D1000B0FA824601912B4638461946029AFEF7E0
:101D2000A2FA32464346FEF7A4FA5246019BFEF75A
:101D3000F9F907468A463246434629460298FEF795
:101D400098FA05460E463A465346FEF7EBF9594ACD
:101D50008846914221DBA8EB020353EA000210D12E
:101D60002A463346FEF77FFACDE90401524A534B27
:101D700038465146FEF7D6F9DDE90423FEF76CFC40
:101D800021D20220FFF724FCFFF702FC0A4621467D
:101D900018B062F31E01BDE8F08D494B28F00042F7
:101DA0009A4210D3474A08EB020353EA00027FF439
:101DB000C6AD2A463346FEF756FA3A465346FEF774
:101DC0004BFC7FF6BCAD0022019228F000403E495A
:101DD0003E4A01EB2051824223DA481C4FF4801125
:101DE00021FA00F040443A4AC0F30A517A44394B90
:101DF000A1F2FF31CB4020EA0303C0F3130040F40B
:101E00008010C1F11401C84012680190B8F1000FB0
:101E1000BCBF4042019028463146FEF724FA0546F1
:101E20000E462A46334638465146FEF77BF94FF0B8
:101E300000084246284B40460591FEF71AFACDE9C4
:101E40000601264A264B40460599FEF712FA0091F4
:101E500002902A46334640460599FEF704FA3A4670
:101E60005346FEF703FA1F4A1F4BFEF702FA009B88
:101E7000029AFEF757F90746884602460B4635E0B8
:101E80008E9803007AB60B007A0500000000F03F40
:101E9000B2050000E00400000000084009C7EE3F62
:101EA000FD033ADCF5015B14E02F3EBEB8030000F1
:101EB0007C03000000009040FE822B654715973C94
:101EC00000CC904000346F3F01FCFFFF0000E03F7A
:101ED000C8020000FFFF0F00432EE63F396CA80C3C
:101EE000615C20BEEF39FAFE422EE63FDDE90601D5
:101EF000FEF718F9DDE9062305460E46FEF7B3F9AD
:101F00003A464346FEF7B2F90F462A46334600905A
:101F100010461946FEF7ADF9824602462E4888461D
:101F20000B4605217844FFF7CDFA52464346FEF7AB
:101F3000A0F92A463346FEF799F980468A463B4681
:101F400028463146009AFEF794F93B46009AFEF780
:101F5000E9F80691009000224FF080434046514638
:101F6000FEF781F90F460C9042465346284631460B
:101F7000FEF77FF93B460C9AFEF7EDF9069B009AB7
:101F8000FEF771F92A463346FEF76DF90022134B2E
:101F9000FEF76CF9054601980E4601EB0051081555
:101FA000002810DC28463146019AFEF73DFBFFF77A
:101FB00075FA042808BFFFF7F3FA28463146019A5C
:101FC000FEF732FB05460B4618B02A465846214616
:101FD000BDE8F04DFEF74DB9680100000000F03F8C
:101FE0002DE9F04106460F46FEF770FB041E0D4634
:101FF00018BF0120284320F00040C0F17F6000F1AD
:10200000E040C00F0ED0301C18BF0120384320F034
:102010000040C0F17F6000F1E040C00F04BF01202C
:10202000FFF7D6FA20462946BDE8F08100000000FF
:10203000000000000000F03F000000000000F83F3A
:1020400000000000000000000000004003B8E23F74
:10205000000000000000000006D0CF43EBFD4C3E26
:10206000033333333333E33FFFAB6FDBB66DDB3F1B
:102070004D268F515555D53F01411DA96074D13F63
:1020800065DBC9934A86CD3FEF4E454A287ECA3F5D
:102090003E5555555555C53F93BDBE166CC166BFDF
:1020A0002CDE25AF6A56113FF16BD2C541BDBBBED8
:1020B000D0A4BE726937663E000000000000000038
:1020C000E02000080000002048000000B0150008D3
:1020D000282100084800002000040000C015000866
:1020E00000A24A04000000000000000001020304F6
:1020F00006070809000000000000000000000000C2
:102100000102030401020304060708090204060889
:1021100000000000000000000000000000000000BF
:082120000000000000000000B7
:04000005080000ED02
:00000001FF
